{
  "_format": "hh3-artifact-1",
  "contractName": "TOEFLRecord",
  "sourceName": "contracts/TOEFLRecord.sol",
  "abi": [
    {
      "anonymous": false,
      "inputs": [
        {
          "indexed": true,
          "internalType": "address",
          "name": "sender",
          "type": "address"
        },
        {
          "indexed": true,
          "internalType": "bytes32",
          "name": "hash",
          "type": "bytes32"
        },
        {
          "indexed": false,
          "internalType": "string",
          "name": "cid",
          "type": "string"
        }
      ],
      "name": "RecordStored",
      "type": "event"
    },
    {
      "inputs": [
        {
          "internalType": "bytes32",
          "name": "hash",
          "type": "bytes32"
        }
      ],
      "name": "getRecord",
      "outputs": [
        {
          "internalType": "string",
          "name": "",
          "type": "string"
        }
      ],
      "stateMutability": "view",
      "type": "function"
    },
    {
      "inputs": [
        {
          "internalType": "bytes32",
          "name": "hash",
          "type": "bytes32"
        },
        {
          "internalType": "string",
          "name": "cid",
          "type": "string"
        }
      ],
      "name": "store",
      "outputs": [],
      "stateMutability": "nonpayable",
      "type": "function"
    }
  ],
  "bytecode": "0x6080604052348015600e575f5ffd5b506104688061001c5f395ff3fe608060405234801561000f575f5ffd5b5060043610610034575f3560e01c8063213681cd146100385780639d105a2514610061575b5f5ffd5b61004b6100463660046101d6565b610076565b60405161005891906101ed565b60405180910390f35b61007461006f366004610236565b610115565b005b5f818152602081905260409020805460609190610092906102f3565b80601f01602080910402602001604051908101604052809291908181526020018280546100be906102f3565b80156101095780601f106100e057610100808354040283529160200191610109565b820191905f5260205f20905b8154815290600101906020018083116100ec57829003601f168201915b50505050509050919050565b5f828152602081905260409020805461012d906102f3565b1590506101785760405162461bcd60e51b81526020600482015260156024820152745265636f726420616c72656164792065786973747360581b604482015260640160405180910390fd5b5f82815260208190526040902061018f8282610377565b5081336001600160a01b03167fef25f6b8642c9464ee482dcafb16200c1503926bb7a8a87271a9f483e6732c5f836040516101ca91906101ed565b60405180910390a35050565b5f602082840312156101e6575f5ffd5b5035919050565b602081525f82518060208401528060208501604085015e5f604082850101526040601f19601f83011684010191505092915050565b634e487b7160e01b5f52604160045260245ffd5b5f5f60408385031215610247575f5ffd5b82359150602083013567ffffffffffffffff811115610264575f5ffd5b8301601f81018513610274575f5ffd5b803567ffffffffffffffff81111561028e5761028e610222565b604051601f8201601f19908116603f0116810167ffffffffffffffff811182821017156102bd576102bd610222565b6040528181528282016020018710156102d4575f5ffd5b816020840160208301375f602083830101528093505050509250929050565b600181811c9082168061030757607f821691505b60208210810361032557634e487b7160e01b5f52602260045260245ffd5b50919050565b601f82111561037257805f5260205f20601f840160051c810160208510156103505750805b601f840160051c820191505b8181101561036f575f815560010161035c565b50505b505050565b815167ffffffffffffffff81111561039157610391610222565b6103a58161039f84546102f3565b8461032b565b6020601f8211600181146103d7575f83156103c05750848201515b5f19600385901b1c1916600184901b17845561036f565b5f84815260208120601f198516915b8281101561040657878501518255602094850194600190920191016103e6565b508482101561042357868401515f19600387901b60f8161c191681555b50505050600190811b0190555056fea2646970667358221220e62409d6d1be83504df7f2dc0ce16f870c8bc21cb6c9d665ea0ef2a3883ba37864736f6c634300081c0033",
  "linkReferences": {},
  "deployedLinkReferences": {},
  "immutableReferences": {},
  "inputSourceName": "project/contracts/TOEFLRecord.sol",
  "buildInfoId": "solc-0_8_28-4e236a1b969869712e4b3135f9444ba64b5fc1ba"
}